:100000000C943A000C9489000C9489000C9489009B
:100010000C9489000C9489000C9489000C9489003C
:100020000C9489000C9489000C9489000C9489002C
:100030000C9489000C9489000C9489000C9489001C
:100040000C9489000C9489000C9489000C9489000C
:100050000C9489000C9489000C9489000C948900FC
:100060000C9489000C9489000100010280010201B6
:100070000600011611241FBECFEFD8E0DEBFCDBFB2
:10008000E8E6F0E040E017C0B591A59135912591E3
:10009000059107FD0CC095918591EF01F92FE82F8F
:1000A00005900D92A217B307D9F7FE0104C01D9267
:1000B000A217B307E1F7E437F40731F70E946400B1
:0800C0000C946200F894FFCFDC
:1000C8008FE38AB98BB9809102018BB92FEF83ED49
:1000D80090E3215080409040E1F700C000008091FB
:1000E80004018BB92FEF83ED90E3215080409040BD
:1000F800E1F700C00000809100018BB98FE891E022
:0A0108000197F1F700C00000DECF00
:040112000C94000049
:02011600550092
:02011800AA003B
:00000001FF
