:100000000C9434000C944F010C944F010C944F014C
:100010000C944F010C944F010C944F010C944F0120
:100020000C944F010C944F010C944F010C944F0110
:100030000C944F010C944F010C944F010C944F0100
:100040000C944F010C944F010C944F010C944F01F0
:100050000C944F010C944F010C944F010C944F01E0
:100060000C944F010C944F0111241FBECFEFD8E028
:10007000DEBFCDBFE8E6F0E040E017C0B591A59146
:1000800035912591059107FD0CC095918591EF0162
:10009000F92FE82F05900D92A217B307D9F7FE01AB
:1000A00004C01D92A217B307E1F7E836F40731F751
:0C00B0000E941E010C945C00F894FFCF2D
:1000BC0080E50E94B0008FE99FE00197F1F700C046
:1000CC00000080E00E94E7008FE99FE00197F1F7C4
:1000DC0000C0000081E10E94E7008FE99FE00197DA
:1000EC00F1F700C000008FE10E94E7008FE99FE06C
:1000FC000197F1F700C000008FE10E94E7008FE943
:10010C009FE00197F1F700C000008FE10E94E7002B
:10011C008FE99FE00197F1F700C0000081E10E9498
:10012C00E7008FE99FE00197F1F700C0000081E143
:10013C000E94E7008FE99FE00197F1F700C00000F3
:10014C0081E10E94E7008FE99FE00197F1F700C081
:04015C000000089502
:10016000982F907F9695969598B998B19E7F98B95B
:1001700098B1926098B9EFE9FFE03197F1F700C0CC
:10018000000098B19D7F98B9EFE3FCE93197F1F752
:1001900000C0000090E0880F991F880F991F8C7392
:1001A00088B988B18E7F88B988B1826088B98FE9B3
:1001B0009FE00197F1F700C0000088B18D7F88B9FA
:0E01C000EFE3FCE93197F1F700C0000008956D
:1001CE00982F907F9695969598B998B1936098B917
:1001DE00EFE9FFE03197F1F700C0000098B19D7F85
:1001EE0098B998B19E7F98B9EFE3FCE93197F1F792
:1001FE0000C0000090E0880F991F880F991F8C7324
:10020E0088B988B1836088B98FE99FE00197F1F7CB
:10021E0000C0000088B18D7F88B988B18E7F88B903
:0E022E00EFE3FCE93197F1F700C000000895FE
:10023C001AB88FEF8BB987B90E9438010E944B0115
:10024C008FE39CE90197F1F700C000000E945E006B
:10025C009FEF23ED80E3915020408040E1F700C0F8
:04026C000000F4CFCB
:1002700082E00E94B00088E20E94B0008EE00E94FE
:10028000B00086E00E94B00081E00E94B00080E8EB
:060290000E94B000089579
:0802960081E00E94B000089510
:04029E000C940000BC
:00000001FF
