:100000000C9434000C94E9000C94E9000C94E90081
:100010000C94E9000C94E9000C94E9000C94E900BC
:100020000C94E9000C94E9000C94E9000C94E900AC
:100030000C94E9000C94E9000C94E9000C94E9009C
:100040000C94E9000C94E9000C94E9000C94E9008C
:100050000C94E9000C94E9000C94E9000C94E9007C
:100060000C94E9000C94E90011241FBECFEFD8E0F6
:10007000DEBFCDBFE8E6F0E040E017C0B591A59146
:1000800035912591059107FD0CC095918591EF0162
:10009000F92FE82F05900D92A217B307D9F7FE01AB
:1000A00004C01D92A217B307E1F7E836F40731F751
:0C00B0000E94DF000C945C00F894FFCF6D
:1000BC00982F907F9695969598B998B19E7F98B900
:1000CC0098B1926098B9EFE9FFE03197F1F700C071
:1000DC00000098B19D7F98B9EFE3FCE93197F1F7F7
:1000EC0000C0000090E0880F991F880F991F8C7337
:1000FC0088B988B18E7F88B988B1826088B98FE958
:10010C009FE00197F1F700C0000088B18D7F88B99E
:0E011C00EFE3FCE93197F1F700C00000089511
:10012A00982F907F9695969598B998B1936098B9BB
:10013A00EFE9FFE03197F1F700C0000098B19D7F29
:10014A0098B998B19E7F98B9EFE3FCE93197F1F736
:10015A0000C0000090E0880F991F880F991F8C73C8
:10016A0088B988B1836088B98FE99FE00197F1F770
:10017A0000C0000088B18D7F88B988B18E7F88B9A8
:0E018A00EFE3FCE93197F1F700C000000895A3
:1001980082E00E945E0088E20E945E008EE00E947B
:1001A8005E0086E00E945E0081E00E945E0080E8BA
:0601B8000E945E000895A4
:1001BE001AB88FEF8BB987B90E94CC0081E60E94E6
:0401CE009500FCCFCD
:0401D2000C94000089
:00000001FF
