:100000000C9434000C94AD030C94AD030C94AD032C
:100010000C94AD030C94AD030C94AD030C94AD03A0
:100020000C94AD030C94AD030C94AD030C94AD0390
:100030000C94AD030C94AD030C94AD030C94AD0380
:100040000C94AD030C94AD030C94AD030C94AD0370
:100050000C94AD030C94AD030C94AD030C94AD0360
:100060000C94AD030C94AD0311241FBECFEFD8E068
:10007000DEBFCDBFE8E6F0E040E017C0B591A59146
:1000800035912591059107FD0CC095918591EF0162
:10009000F92FE82F05900D92A217B307D9F7FE01AB
:1000A00004C01D92A217B307E1F7E836F40731F751
:0C00B0000E94EE020C945C00F894FFCF5C
:1000BC0080E40E9428038FE99FE00197F1F700C0CC
:1000CC0000008FE10E945F038FE99FE00197F1F739
:1000DC0000C0000085E10E945F038FE99FE001975B
:1000EC00F1F700C0000085E10E945F038FE99FE0FB
:1000FC000197F1F700C000008FE10E945F038FE9C8
:10010C009FE00197F1F700C000008AE00E945F03B6
:10011C008FE99FE00197F1F700C0000085E10E9494
:10012C005F038FE99FE00197F1F700C000008FE1BA
:10013C000E945F038FE99FE00197F1F700C0000078
:10014C0080E00E945F038FE99FE00197F1F700C008
:04015C000000089502
:1001600088E40E9428038FE99FE00197F1F700C01F
:10017000000080E00E945F038FE99FE00197F1F7A4
:1001800000C0000085E10E945F038FE99FE00197B6
:10019000F1F700C0000085E10E945F038FE99FE056
:1001A0000197F1F700C0000085E10E945F038FE92D
:1001B0009FE00197F1F700C0000085E10E945F0316
:1001C0008FE99FE00197F1F700C0000085E10E94F0
:1001D0005F038FE99FE00197F1F700C0000085E120
:1001E0000E945F038FE99FE00197F1F700C00000D4
:1001F00085E10E945F038FE99FE00197F1F700C05E
:04020000000008955D
:1002040080E50E9428038FE99FE00197F1F700C081
:10021400000080E00E945F038FE99FE00197F1F7FF
:1002240000C0000081E10E945F038FE99FE0019715
:10023400F1F700C000008FE10E945F038FE99FE0A7
:100244000197F1F700C000008FE10E945F038FE97E
:100254009FE00197F1F700C000008FE10E945F0367
:100264008FE99FE00197F1F700C0000081E10E944F
:100274005F038FE99FE00197F1F700C0000081E17F
:100284000E945F038FE99FE00197F1F700C000002F
:1002940081E10E945F038FE99FE00197F1F700C0BD
:0402A40000000895B9
:1002A80088E50E9428038FE99FE00197F1F700C0D5
:1002B800000080E00E945F038FE99FE00197F1F75B
:1002C80000C000008FE10E945F038FE99FE0019763
:1002D800F1F700C0000081E10E945F038FE99FE011
:1002E8000197F1F700C0000081E10E945F038FE9E8
:1002F8009FE00197F1F700C0000085E10E945F03CD
:100308008FE99FE00197F1F700C0000081E10E94AA
:100318005F038FE99FE00197F1F700C000008FE1CC
:100328000E945F038FE99FE00197F1F700C000008A
:100338008FE10E945F038FE99FE00197F1F700C00A
:040348000000089514
:10034C0080E60E9428038FE99FE00197F1F700C037
:10035C0000008FE10E945F038FE99FE00197F1F7A6
:10036C0000C0000084E00E945F038FE99FE00197CA
:10037C00F1F700C000008EE00E945F038FE99FE060
:10038C000197F1F700C000008FE10E945F038FE935
:10039C009FE00197F1F700C000008FE10E945F031E
:1003AC008FE99FE00197F1F700C000008EE00E94FA
:1003BC005F038FE99FE00197F1F700C0000084E034
:1003CC000E945F038FE99FE00197F1F700C00000E6
:1003DC008FE10E945F038FE99FE00197F1F700C066
:0403EC000000089570
:1003F00088E60E9428038FE99FE00197F1F700C08B
:1004000000008EE00E945F038FE99FE00197F1F703
:1004100000C0000088E00E945F038FE99FE0019721
:10042000F1F700C000008CE00E945F038FE99FE0BD
:100430000197F1F700C000008FE10E945F038FE990
:100440009FE00197F1F700C000008FE10E945F0379
:100450008FE99FE00197F1F700C000008CE00E9457
:100460005F038FE99FE00197F1F700C0000088E08B
:100470000E945F038FE99FE00197F1F700C0000041
:100480008EE00E945F038FE99FE00197F1F700C0C3
:0404900000000895CB
:1004940080E70E9428038FE99FE00197F1F700C0ED
:1004A400000088E00E945F038FE99FE00197F1F765
:1004B40000C000008DE10E945F038FE99FE0019777
:1004C400F1F700C000008FE10E945F038FE99FE015
:1004D4000197F1F700C000008DE10E945F038FE9EE
:1004E4009FE00197F1F700C0000084E10E945F03E0
:1004F4008FE99FE00197F1F700C0000084E10E94BA
:100504005F038FE99FE00197F1F700C0000084E1E9
:100514000E945F038FE99FE00197F1F700C000009C
:1005240084E10E945F038FE99FE00197F1F700C027
:040534000000089526
:1005380088E70E9428038FE99FE00197F1F700C040
:10054800000080E00E945F038FE99FE00197F1F7C8
:1005580000C0000080E00E945F038FE99FE00197E0
:10056800F1F700C0000080E00E945F038FE99FE080
:100578000197F1F700C000008CE00E945F038FE94B
:100588009FE00197F1F700C000008FE10E945F0330
:100598008FE99FE00197F1F700C000008CE00E940E
:1005A8005F038FE99FE00197F1F700C0000080E04A
:1005B8000E945F038FE99FE00197F1F700C00000F8
:1005C80080E00E945F038FE99FE00197F1F700C088
:0405D8000000089582
:1005DC001AB88FEF8BB987B90E9496030E945E0000
:1005EC000E94B0000E9402010E9454010E94A601C8
:1005FC000E94F8010E944A020E949C0280E00E9424
:10060C005F0381E00E945F0382E00E945F0383E04E
:10061C000E945F0384E00E945F0385E00E945F03F9
:10062C0086E00E945F0387E00E945F032FEF87EA5A
:10063C0091E6215080409040E1F700C000000E94FC
:04064C00A903DCCF53
:10065000982F907F9695969598B998B19E7F98B966
:1006600098B1926098B9EFE9FFE03197F1F700C0D7
:10067000000098B19D7F98B9EFE3FCE93197F1F75D
:1006800000C0000090E0880F991F880F991F8C739D
:1006900088B988B18E7F88B988B1826088B98FE9BE
:1006A0009FE00197F1F700C0000088B18D7F88B905
:0E06B000EFE3FCE93197F1F700C00000089578
:1006BE00982F907F9695969598B998B1936098B922
:1006CE00EFE9FFE03197F1F700C0000098B19D7F90
:1006DE0098B998B19E7F98B9EFE3FCE93197F1F79D
:1006EE0000C0000090E0880F991F880F991F8C732F
:1006FE0088B988B1836088B98FE99FE00197F1F7D7
:10070E0000C0000088B18D7F88B988B18E7F88B90E
:0E071E00EFE3FCE93197F1F700C00000089509
:10072C0082E00E94280388E20E9428038EE00E9447
:10073C00280386E00E94280381E00E94280380E8B9
:06074C000E94280308953D
:0807520081E00E9428030895D4
:04075A000C940000FB
:00000001FF
