:100000000C9434000C9451020C9451020C94510243
:100010000C9451020C9451020C9451020C94510214
:100020000C9451020C9451020C9451020C94510204
:100030000C9451020C9451020C9451020C945102F4
:100040000C9451020C9451020C9451020C945102E4
:100050000C9451020C9451020C9451020C945102D4
:100060000C9451020C94510211241FBECFEFD8E022
:10007000DEBFCDBFE8E6F0E040E017C0B591A59146
:1000800035912591059107FD0CC095918591EF0162
:10009000F92FE82F05900D92A217B307D9F7FE01AB
:1000A00004C01D92A217B307E1F7E836F40731F751
:0C00B0000E9414020C945C00F894FFCF36
:1000BC0080E40E94A6018FE99FE00197F1F700C050
:1000CC0000008FE10E94DD018FE99FE00197F1F7BD
:1000DC0000C0000085E10E94DD018FE99FE00197DF
:1000EC00F1F700C0000085E10E94DD018FE99FE07F
:1000FC000197F1F700C000008FE10E94DD018FE94C
:10010C009FE00197F1F700C000008AE00E94DD013A
:10011C008FE99FE00197F1F700C0000085E10E9494
:10012C00DD018FE99FE00197F1F700C000008FE13E
:10013C000E94DD018FE99FE00197F1F700C00000FC
:10014C0080E00E94DD018FE99FE00197F1F700C08C
:04015C000000089502
:1001600080E10E94A6018FE99FE00197F1F700C0AE
:10017000000080E00E94DD018FE99FE00197F1F728
:1001800000C0000085E10E94DD018FE99FE001973A
:10019000F1F700C0000085E10E94DD018FE99FE0DA
:1001A0000197F1F700C0000085E10E94DD018FE9B1
:1001B0009FE00197F1F700C0000085E10E94DD019A
:1001C0008FE99FE00197F1F700C0000085E10E94F0
:1001D000DD018FE99FE00197F1F700C0000085E1A4
:1001E0000E94DD018FE99FE00197F1F700C0000058
:1001F00085E10E94DD018FE99FE00197F1F700C0E2
:04020000000008955D
:1002040080E50E94A6018FE99FE00197F1F700C005
:10021400000080E00E94DD018FE99FE00197F1F783
:1002240000C0000081E10E94DD018FE99FE0019799
:10023400F1F700C000008FE10E94DD018FE99FE02B
:100244000197F1F700C000008FE10E94DD018FE902
:100254009FE00197F1F700C000008FE10E94DD01EB
:100264008FE99FE00197F1F700C0000081E10E944F
:10027400DD018FE99FE00197F1F700C0000081E103
:100284000E94DD018FE99FE00197F1F700C00000B3
:1002940081E10E94DD018FE99FE00197F1F700C041
:0402A40000000895B9
:1002A80088E50E94A6018FE99FE00197F1F700C059
:1002B800000080E00E94DD018FE99FE00197F1F7DF
:1002C80000C000008FE10E94DD018FE99FE00197E7
:1002D800F1F700C0000081E10E94DD018FE99FE095
:1002E8000197F1F700C0000081E10E94DD018FE96C
:1002F8009FE00197F1F700C0000085E10E94DD0151
:100308008FE99FE00197F1F700C0000081E10E94AA
:10031800DD018FE99FE00197F1F700C000008FE150
:100328000E94DD018FE99FE00197F1F700C000000E
:100338008FE10E94DD018FE99FE00197F1F700C08E
:040348000000089514
:10034C00982F907F9695969598B998B19E7F98B96D
:10035C0098B1926098B9EFE9FFE03197F1F700C0DE
:10036C00000098B19D7F98B9EFE3FCE93197F1F764
:10037C0000C0000090E0880F991F880F991F8C73A4
:10038C0088B988B18E7F88B988B1826088B98FE9C5
:10039C009FE00197F1F700C0000088B18D7F88B90C
:0E03AC00EFE3FCE93197F1F700C0000008957F
:1003BA00982F907F9695969598B998B1936098B929
:1003CA00EFE9FFE03197F1F700C0000098B19D7F97
:1003DA0098B998B19E7F98B9EFE3FCE93197F1F7A4
:1003EA0000C0000090E0880F991F880F991F8C7336
:1003FA0088B988B1836088B98FE99FE00197F1F7DE
:10040A0000C0000088B18D7F88B988B18E7F88B915
:0E041A00EFE3FCE93197F1F700C00000089510
:100428001AB88FEF8BB987B90E943A020E945E0012
:100438000E94B0000E9402010E94540180E00E94C4
:10044800DD0181E00E94DD0182E00E94DD0183E0A0
:100458000E94DD012FEF87EA91E62150804090400D
:0C046800E1F700C000000E944D02E8CF48
:1004740082E00E94A60188E20E94A6018EE00E940A
:10048400A60186E00E94A60181E00E94A60180E800
:060494000E94A60108957C
:08049A0081E00E94A601089513
:0404A2000C940000B6
:00000001FF
