:100000000C9434000C94B6030C94B6030C94B60311
:100010000C94B6030C94B6030C94B6030C94B6037C
:100020000C94B6030C94B6030C94B6030C94B6036C
:100030000C94B6030C94B6030C94B6030C94B6035C
:100040000C94B6030C94B6030C94B6030C94B6034C
:100050000C94B6030C94B6030C94B6030C94B6033C
:100060000C94B6030C94B60311241FBECFEFD8E056
:10007000DEBFCDBFE8E6F0E040E017C0B591A59146
:1000800035912591059107FD0CC095918591EF0162
:10009000F92FE82F05900D92A217B307D9F7FE01AB
:1000A00004C01D92A217B307E1F7E836F40731F751
:0C00B0000E94EE020C945C00F894FFCF5C
:1000BC0080E40E9431038FE99FE00197F1F700C0C3
:1000CC0000008FE10E9468038FE99FE00197F1F730
:1000DC0000C0000085E10E9468038FE99FE0019752
:1000EC00F1F700C0000085E10E9468038FE99FE0F2
:1000FC000197F1F700C000008FE10E9468038FE9BF
:10010C009FE00197F1F700C000008AE00E946803AD
:10011C008FE99FE00197F1F700C0000085E10E9494
:10012C0068038FE99FE00197F1F700C000008FE1B1
:10013C000E9468038FE99FE00197F1F700C000006F
:10014C0080E00E9468038FE99FE00197F1F700C0FF
:04015C000000089502
:1001600088E40E9431038FE99FE00197F1F700C016
:10017000000080E00E9468038FE99FE00197F1F79B
:1001800000C0000085E10E9468038FE99FE00197AD
:10019000F1F700C0000085E10E9468038FE99FE04D
:1001A0000197F1F700C0000085E10E9468038FE924
:1001B0009FE00197F1F700C0000085E10E9468030D
:1001C0008FE99FE00197F1F700C0000085E10E94F0
:1001D00068038FE99FE00197F1F700C0000085E117
:1001E0000E9468038FE99FE00197F1F700C00000CB
:1001F00085E10E9468038FE99FE00197F1F700C055
:04020000000008955D
:1002040080E50E9431038FE99FE00197F1F700C078
:10021400000080E00E9468038FE99FE00197F1F7F6
:1002240000C0000081E10E9468038FE99FE001970C
:10023400F1F700C000008FE10E9468038FE99FE09E
:100244000197F1F700C000008FE10E9468038FE975
:100254009FE00197F1F700C000008FE10E9468035E
:100264008FE99FE00197F1F700C0000081E10E944F
:1002740068038FE99FE00197F1F700C0000081E176
:100284000E9468038FE99FE00197F1F700C0000026
:1002940081E10E9468038FE99FE00197F1F700C0B4
:0402A40000000895B9
:1002A80088E50E9431038FE99FE00197F1F700C0CC
:1002B800000080E00E9468038FE99FE00197F1F752
:1002C80000C000008FE10E9468038FE99FE001975A
:1002D800F1F700C0000081E10E9468038FE99FE008
:1002E8000197F1F700C0000081E10E9468038FE9DF
:1002F8009FE00197F1F700C0000085E10E946803C4
:100308008FE99FE00197F1F700C0000081E10E94AA
:1003180068038FE99FE00197F1F700C000008FE1C3
:100328000E9468038FE99FE00197F1F700C0000081
:100338008FE10E9468038FE99FE00197F1F700C001
:040348000000089514
:10034C0080E60E9431038FE99FE00197F1F700C02E
:10035C0000008FE10E9468038FE99FE00197F1F79D
:10036C0000C0000084E00E9468038FE99FE00197C1
:10037C00F1F700C000008EE00E9468038FE99FE057
:10038C000197F1F700C000008FE10E9468038FE92C
:10039C009FE00197F1F700C000008FE10E94680315
:1003AC008FE99FE00197F1F700C000008EE00E94FA
:1003BC0068038FE99FE00197F1F700C0000084E02B
:1003CC000E9468038FE99FE00197F1F700C00000DD
:1003DC008FE10E9468038FE99FE00197F1F700C05D
:0403EC000000089570
:1003F00088E60E9431038FE99FE00197F1F700C082
:1004000000008EE00E9468038FE99FE00197F1F7FA
:1004100000C0000088E00E9468038FE99FE0019718
:10042000F1F700C000008CE00E9468038FE99FE0B4
:100430000197F1F700C000008FE10E9468038FE987
:100440009FE00197F1F700C000008FE10E94680370
:100450008FE99FE00197F1F700C000008CE00E9457
:1004600068038FE99FE00197F1F700C0000088E082
:100470000E9468038FE99FE00197F1F700C0000038
:100480008EE00E9468038FE99FE00197F1F700C0BA
:0404900000000895CB
:1004940080E70E9431038FE99FE00197F1F700C0E4
:1004A400000088E00E9468038FE99FE00197F1F75C
:1004B40000C000008DE10E9468038FE99FE001976E
:1004C400F1F700C000008FE10E9468038FE99FE00C
:1004D4000197F1F700C000008DE10E9468038FE9E5
:1004E4009FE00197F1F700C0000084E10E946803D7
:1004F4008FE99FE00197F1F700C0000084E10E94BA
:1005040068038FE99FE00197F1F700C0000084E1E0
:100514000E9468038FE99FE00197F1F700C0000093
:1005240084E10E9468038FE99FE00197F1F700C01E
:040534000000089526
:1005380088E70E9431038FE99FE00197F1F700C037
:10054800000080E00E9468038FE99FE00197F1F7BF
:1005580000C0000080E00E9468038FE99FE00197D7
:10056800F1F700C0000080E00E9468038FE99FE077
:100578000197F1F700C000008CE00E9468038FE942
:100588009FE00197F1F700C000008FE10E94680327
:100598008FE99FE00197F1F700C000008CE00E940E
:1005A80068038FE99FE00197F1F700C0000080E041
:1005B8000E9468038FE99FE00197F1F700C00000EF
:1005C80080E00E9468038FE99FE00197F1F700C07F
:0405D8000000089582
:1005DC001AB88FEF8BB987B90E949F030E945E00F7
:1005EC000E94B0000E9402010E9454010E94A601C8
:1005FC000E94F8010E944A020E949C028FE39CE92F
:10060C000197F1F700C0000080E00E94680381E0D0
:10061C000E94680382E00E94680383E00E946803E2
:10062C0080E20E94680384E00E94680385E00E94D7
:10063C00680386E00E94680387E00E9468039FEFCE
:10064C0027EA81E6915020408040E1F700C000008D
:06065C000E94B203D9CF99
:10066200982F907F9695969598B998B19E7F98B954
:1006720098B1926098B9EFE9FFE03197F1F700C0C5
:10068200000098B19D7F98B9EFE3FCE93197F1F74B
:1006920000C0000090E0880F991F880F991F8C738B
:1006A20088B988B18E7F88B988B1826088B98FE9AC
:1006B2009FE00197F1F700C0000088B18D7F88B9F3
:0E06C200EFE3FCE93197F1F700C00000089566
:1006D000982F907F9695969598B998B1936098B910
:1006E000EFE9FFE03197F1F700C0000098B19D7F7E
:1006F00098B998B19E7F98B9EFE3FCE93197F1F78B
:1007000000C0000090E0880F991F880F991F8C731C
:1007100088B988B1836088B98FE99FE00197F1F7C4
:1007200000C0000088B18D7F88B988B18E7F88B9FC
:0E073000EFE3FCE93197F1F700C000000895F7
:10073E0082E00E94310388E20E9431038EE00E9423
:10074E00310386E00E94310381E00E94310380E88C
:06075E000E943103089522
:0807640081E00E9431030895B9
:04076C000C940000E9
:00000001FF
