:100000000C9434000C9454000C9454000C94540040
:100010000C9454000C9454000C9454000C94540010
:100020000C9454000C9454000C9454000C94540000
:100030000C9454000C9454000C9454000C945400F0
:100040000C9454000C9454000C9454000C945400E0
:100050000C9454000C9454000C9454000C945400D0
:100060000C9454000C94540011241FBECFEFD8E020
:10007000DEBFCDBF0E9440000C943E00F894FFCF3D
:10008000F89481E883BD88EC90E090938900809398
:10009000880082E084B980E48093800089E08093C6
:0800A000810013BC7894FFCF2E
:0400A8000C940000B4
:00000001FF
