:100000000C9434000C9450000C9490000C94A201B9
:100010000C94A2010C94A2010C94A2010C94A201D4
:100020000C94A2010C94A2010C94A2010C94A201C4
:100030000C94A2010C94A2010C94A2010C94A201B4
:100040000C94A2010C94A2010C94A2010C94A201A4
:100050000C94A2010C94A2010C94A2010C94A20194
:100060000C94A2010C94A20111241FBECFEFD8E082
:10007000DEBFCDBF0E943D010C943E00F894FFCF3F
:10008000616464203D3D206C6F772066726571006D
:0F009000737562203D3D207570206672657100AA
:1000A0001F920F920FB60F9211242F933F934F93ED
:1000B0005F936F937F938F939F93AF93BF93EF93D0
:1000C000FF9360E870E080E00E946B012FEF89E60B
:1000D00098E1215080409040E1F700C000000E946C
:1000E0009E0180918800909189008D3C910538F4A3
:1000F000E8E8F0E080819181C29691838083FF914E
:10010000EF91BF91AF919F918F917F916F915F918F
:100110004F913F912F910F900FBE0F901F90189508
:100120001F920F920FB60F9211242F933F934F936C
:100130005F936F937F938F939F93AF93BF93EF934F
:10014000FF9360E970E080E00E946B012FEF89E689
:1001500098E1215080409040E1F700C000000E94EB
:100160009E018091880090918900C39738F0E8E85B
:10017000F0E080819181C29791838083FF91EF911C
:10018000BF91AF919F918F917F916F915F914F91AF
:0E0190003F912F910F900FBE0F901F9018956A
:10019E00982F907F9695969598B998B19E7F98B91D
:1001AE0098B1926098B9EFE9FFE03197F1F700C08E
:1001BE00000098B19D7F98B9EFE3FCE93197F1F714
:1001CE0000C0000090E0880F991F880F991F8C7354
:1001DE0088B988B18E7F88B988B1826088B98FE975
:1001EE009FE00197F1F700C0000088B18D7F88B9BC
:0E01FE00EFE3FCE93197F1F700C0000008952F
:10020C00982F907F9695969598B998B1936098B9D8
:10021C00EFE9FFE03197F1F700C0000098B19D7F46
:10022C0098B998B19E7F98B9EFE3FCE93197F1F753
:10023C0000C0000090E0880F991F880F991F8C73E5
:10024C0088B988B1836088B98FE99FE00197F1F78D
:10025C0000C0000088B18D7F88B988B18E7F88B9C5
:0E026C00EFE3FCE93197F1F700C000000895C0
:10027A001AB88FEF8BB987B90E948B012FEF89EFDC
:10028A0090E0215080409040E1F700C0000081E8F2
:10029A0083BD88EC90E0909389008093880082E087
:1002AA0084B980E4809380008CE08093810013BC41
:1002BA00F894E9E6F0E080818260808380818C6036
:0C02CA0080838DB383608DBB7894FFCFE0
:1002D600CF92DF92EF92CF93DF936B01E82EC0E0CF
:1002E600D0E003C00E9406012196AE2DC6018C0FF8
:1002F6009D1FA11DD7FDAA95FC018491A7FD8081B4
:100306008111F0CFDF91CF91EF90DF90CF900895DC
:1003160082E00E94CF0088E20E94CF008EE00E9419
:10032600CF0086E00E94CF0081E00E94CF0080E8E7
:060336000E94CF000895B3
:08033C0081E00E94CF0008954A
:040344000C94000015
:00000001FF
