:100000000C9437000C9429010C9429010C942901BB
:100010000C9429010C9429010C9429010C942901B8
:100020000C9429010C9429010C9429010C942901A8
:100030000C9429010C9429010C9429010C94290198
:100040000C94CF000C9429010C9429010C942901E3
:100050000C9429010C9429010C9429010C94290178
:100060000C9429010C942901010001028000112443
:100070001FBECFEFD8E0DEBFCDBFE8E6F0E040E046
:1000800017C0B591A59135912591059107FD0CC03B
:1000900095918591EF01F92FE82F05900D92A21708
:1000A000B307D9F7FE0104C01D92A217B307E1F709
:1000B000ED36F40731F70E9419010C945F00F894B3
:0200C000FFCF70
:1000C200982F907F9695969598B998B19E7F98B9FA
:1000D20098B1926098B9EFE9FFE03197F1F700C06B
:1000E200000098B19D7F98B9EFE3FCE93197F1F7F1
:1000F20000C0000090E0880F991F880F991F8C7331
:1001020088B988B18E7F88B988B1826088B98FE951
:100112009FE00197F1F700C0000088B18D7F88B998
:0E012200EFE3FCE93197F1F700C0000008950B
:10013000982F907F9695969598B998B1936098B9B5
:10014000EFE9FFE03197F1F700C0000098B19D7F23
:1001500098B998B19E7F98B9EFE3FCE93197F1F730
:1001600000C0000090E0880F991F880F991F8C73C2
:1001700088B988B1836088B98FE99FE00197F1F76A
:1001800000C0000088B18D7F88B988B18E7F88B9A2
:0E019000EFE3FCE93197F1F700C0000008959D
:10019E001F920F920FB60F9211242F933F934F93EE
:1001AE005F936F937F938F939F93AF93BF93EF93D1
:1001BE00FF930E942501809100010E94980080917A
:1001CE00000190910101019690930101809300012D
:1001DE000A9721F41092010110920001FF91EF9104
:1001EE00BF91AF919F918F917F916F915F914F9141
:0E01FE003F912F910F900FBE0F901F901895FC
:10020C0082E00E94610088E20E9461008EE00E9400
:10021C00610086E00E94610081E00E94610080E83C
:06022C000E94610008952C
:10023200F8948FEF87B987E085BD81E080936E00E7
:080242000E9406017894FFCF31
:08024A0081E00E9461000895AB
:040252000C94000008
:00000001FF
