:100000000C9437000C947C000C947C000C947C00C5
:100010000C947C000C947C000C947C000C947C0070
:100020000C947C000C947C000C947C000C947C0060
:100030000C947C000C947C000C947C000C947C0050
:100040000C947C000C947C000C947C000C947C0040
:100050000C947C000C947C000C947C000C947C0030
:100060000C947C000C947C0001000102800011249F
:100070001FBECFEFD8E0DEBFCDBFE8E6F0E040E046
:1000800017C0B591A59135912591059107FD0CC03B
:1000900095918591EF01F92FE82F05900D92A21708
:1000A000B307D9F7FE0104C01D92A217B307E1F709
:1000B000ED36F40731F70E9461000C945F00F8946C
:0200C000FFCF70
:1000C20014B88FEF85B98AB91BB883B190E09093C9
:1000D2000101809300018FEC97E00197F1F700C0D6
:1000E2000000809100018BB987EE93E00197F1F750
:0600F20000C00000EACF8F
:0400F8000C94000064
:00000001FF
