:100000000C9438000C9459040C9459040C94590421
:100010000C9459040C9459040C9459040C945904EC
:100020000C9459040C9459040C9459040C945904DC
:100030000C9459040C9459040C9459040C945904CC
:100040000C9459040C9459040C9459040C945904BC
:100050000C9459040C9459040C9459040C945904AC
:100060000C9459040C945904010001010008B600D5
:1000700011241FBECFEFD8E0DEBFCDBFE8E6F0E031
:1000800040E017C0B591A59135912591059107FDE7
:100090000CC095918591EF01F92FE82F05900D92F5
:1000A000A217B307D9F7FE0104C01D92A217B30728
:1000B000E1F7EF36F40731F70E9474030C94600007
:0400C000F894FFCFE2
:1000C4008BB18F3B09F444C020F48F3709F45CC032
:1000D40076C08F3D01F18F3E09F071C089B18F70F8
:1000E4008B3089F018F4873091F069C08D3039F085
:1000F4008E3009F064C081E38093000160C084E322
:10010400809300015CC087E38093000158C08AE2B9
:100114008093000154C089B18F708B3089F018F43A
:10012400873091F04CC08D3039F08E3009F047C0E3
:1001340082E38093000143C085E3809300013FC0C4
:1001440088E3809300013BC080E38093000137C0C3
:1001540089B18F708B3081F018F4873089F02FC00B
:100164008D3031F08E3059F583E38093000127C040
:1001740086E38093000123C089E3809300011FC0BC
:1001840083E2809300011BC089B18F708B3081F0B2
:1001940018F4873089F013C08D3031F08E3079F443
:1001A40081E4809300010BC082E48093000107C0C6
:1001B40083E48093000103C084E480930001809170
:0401C4000001089599
:1001C80080E40E94C0038FE99FE00197F1F700C027
:1001D80000008FE10E94F7038FE99FE00197F1F794
:1001E80000C0000085E10E94F7038FE99FE00197B6
:1001F800F1F700C0000085E10E94F7038FE99FE056
:100208000197F1F700C000008FE10E94F7038FE922
:100218009FE00197F1F700C000008AE00E94F70311
:100228008FE99FE00197F1F700C0000085E10E9487
:10023800F7038FE99FE00197F1F700C000008FE115
:100248000E94F7038FE99FE00197F1F700C00000D3
:1002580080E00E94F7038FE99FE00197F1F700C063
:0402680000000895F5
:10026C0088E40E94C0038FE99FE00197F1F700C07A
:10027C00000080E00E94F7038FE99FE00197F1F7FF
:10028C0000C0000085E10E94F7038FE99FE0019711
:10029C00F1F700C0000085E10E94F7038FE99FE0B1
:1002AC000197F1F700C0000085E10E94F7038FE988
:1002BC009FE00197F1F700C0000085E10E94F70371
:1002CC008FE99FE00197F1F700C0000085E10E94E3
:1002DC00F7038FE99FE00197F1F700C0000085E17B
:1002EC000E94F7038FE99FE00197F1F700C000002F
:1002FC0085E10E94F7038FE99FE00197F1F700C0B9
:04030C000000089550
:1003100080E50E94C0038FE99FE00197F1F700C0DC
:10032000000080E00E94F7038FE99FE00197F1F75A
:1003300000C0000081E10E94F7038FE99FE0019770
:10034000F1F700C000008FE10E94F7038FE99FE002
:100350000197F1F700C000008FE10E94F7038FE9D9
:100360009FE00197F1F700C000008FE10E94F703C2
:100370008FE99FE00197F1F700C0000081E10E9442
:10038000F7038FE99FE00197F1F700C0000081E1DA
:100390000E94F7038FE99FE00197F1F700C000008A
:1003A00081E10E94F7038FE99FE00197F1F700C018
:0403B00000000895AC
:1003B40088E50E94C0038FE99FE00197F1F700C030
:1003C400000080E00E94F7038FE99FE00197F1F7B6
:1003D40000C000008FE10E94F7038FE99FE00197BE
:1003E400F1F700C0000081E10E94F7038FE99FE06C
:1003F4000197F1F700C0000081E10E94F7038FE943
:100404009FE00197F1F700C0000085E10E94F70327
:100414008FE99FE00197F1F700C0000081E10E949D
:10042400F7038FE99FE00197F1F700C000008FE127
:100434000E94F7038FE99FE00197F1F700C00000E5
:100444008FE10E94F7038FE99FE00197F1F700C065
:040454000000089507
:1004580080E60E94C0038FE99FE00197F1F700C092
:1004680000008FE10E94F7038FE99FE00197F1F701
:1004780000C0000084E00E94F7038FE99FE0019725
:10048800F1F700C000008EE00E94F7038FE99FE0BB
:100498000197F1F700C000008FE10E94F7038FE990
:1004A8009FE00197F1F700C000008FE10E94F70379
:1004B8008FE99FE00197F1F700C000008EE00E94ED
:1004C800F7038FE99FE00197F1F700C0000084E08F
:1004D8000E94F7038FE99FE00197F1F700C0000041
:1004E8008FE10E94F7038FE99FE00197F1F700C0C1
:0404F8000000089563
:1004FC0088E60E94C0038FE99FE00197F1F700C0E6
:10050C0000008EE00E94F7038FE99FE00197F1F75E
:10051C0000C0000088E00E94F7038FE99FE001977C
:10052C00F1F700C000008CE00E94F7038FE99FE018
:10053C000197F1F700C000008FE10E94F7038FE9EB
:10054C009FE00197F1F700C000008FE10E94F703D4
:10055C008FE99FE00197F1F700C000008CE00E944A
:10056C00F7038FE99FE00197F1F700C0000088E0E6
:10057C000E94F7038FE99FE00197F1F700C000009C
:10058C008EE00E94F7038FE99FE00197F1F700C01E
:04059C0000000895BE
:1005A00080E70E94C0038FE99FE00197F1F700C048
:1005B000000088E00E94F7038FE99FE00197F1F7C0
:1005C00000C000008DE10E94F7038FE99FE00197D2
:1005D000F1F700C000008FE10E94F7038FE99FE070
:1005E0000197F1F700C000008DE10E94F7038FE949
:1005F0009FE00197F1F700C0000084E10E94F7033B
:100600008FE99FE00197F1F700C0000084E10E94AC
:10061000F7038FE99FE00197F1F700C0000084E144
:100620000E94F7038FE99FE00197F1F700C00000F7
:1006300084E10E94F7038FE99FE00197F1F700C082
:040640000000089519
:1006440088E70E94C0038FE99FE00197F1F700C09B
:10065400000080E00E94F7038FE99FE00197F1F723
:1006640000C0000080E00E94F7038FE99FE001973B
:10067400F1F700C0000080E00E94F7038FE99FE0DB
:100684000197F1F700C000008CE00E94F7038FE9A6
:100694009FE00197F1F700C000008FE10E94F7038B
:1006A4008FE99FE00197F1F700C000008CE00E9401
:1006B400F7038FE99FE00197F1F700C0000080E0A5
:1006C4000E94F7038FE99FE00197F1F700C0000053
:1006D40080E00E94F7038FE99FE00197F1F700C0E3
:0406E4000000089575
:1006E80080EF8AB98FEF87B90E9442040E94E40024
:1006F8000E9436010E9488010E94DA010E942C02A1
:100708000E947E020E94D0020E9422038FE39CE98D
:100718000197F1F700C000000E942E049FEFE3EF5D
:10072800F1E09150E040F040E1F700C000000E9485
:100738006200EFE3FCE93197F1F700C00000823373
:1007480069F018F4813331F014C0833359F08433DD
:1007580069F00FC084E00E94F7030BC085E00E9497
:10076800F70307C086E00E94F70303C087E00E94F2
:08077800F7030E945504D0CFE5
:10078000982F907F9695969598B998B19E7F98B935
:1007900098B1926098B9EFE9FFE03197F1F700C0A6
:1007A000000098B19D7F98B9EFE3FCE93197F1F72C
:1007B00000C0000090E0880F991F880F991F8C736C
:1007C00088B988B18E7F88B988B1826088B98FE98D
:1007D0009FE00197F1F700C0000088B18D7F88B9D4
:0E07E000EFE3FCE93197F1F700C00000089547
:1007EE00982F907F9695969598B998B1936098B9F1
:1007FE00EFE9FFE03197F1F700C0000098B19D7F5F
:10080E0098B998B19E7F98B9EFE3FCE93197F1F76B
:10081E0000C0000090E0880F991F880F991F8C73FD
:10082E0088B988B1836088B98FE99FE00197F1F7A5
:10083E0000C0000088B18D7F88B988B18E7F88B9DD
:0E084E00EFE3FCE93197F1F700C000000895D8
:10085C008BB18F3D41F08F3E19F08F3B51F406C0A8
:10086C008FED8BB908958FEB8BB908958FE78BB90A
:08087C0008958FEE8BB9089579
:1008840082E00E94C00388E20E94C0038EE00E94BE
:10089400C00386E00E94C00381E00E94C00380E898
:0608A4000E94C00308954C
:0808AA0081E00E94C0030895E3
:0408B2000C940000A2
:0108B6002021
:00000001FF
