:100000000C9450000C94AC040C94AC040C94AC0410
:100010000C94AC040C94AC040C94AC040C94AC04A0
:100020000C94AC040C94AC040C94AC040C94AC0490
:100030000C94AC040C94AC040C94AC040C94AC0480
:100040000C94AC040C94AC040C94AC040C94AC0470
:100050000C94AC040C94AC040C94AC040C94AC0460
:100060000C94AC040C94AC04390437043704370402
:1000700037043704370437043704370437043704A8
:10008000370437043704370417041B041F04230400
:1000900027042B042F043304010001010009600030
:1000A00011241FBECFEFD8E0DEBFCDBFE8E9F0E0FE
:1000B00040E017C0B591A59135912591059107FDB7
:1000C0000CC095918591EF01F92FE82F05900D92C5
:1000D000A217B307D9F7FE0104C01D92A217B307F8
:1000E000E1F7EF39F40731F70E943A040C947800F5
:0400F000F894FFCFB2
:1000F4008BB18F3B09F44CC020F48F3709F469C0ED
:1001040088C08F3D21F18F3E09F083C089B18F7083
:100114008B3081F018F4873089F014C08D3031F0C1
:100124008E3081F481E38093000173C084E3809373
:1001340000016FC087E3809300016BC08AE2809363
:10014400000167C00E94AE048093000162C089B1BF
:100154008F708B3081F018F4873089F014C08D30A3
:1001640031F08E3081F482E38093000152C085E344
:10017400809300014EC088E3809300014AC080E36D
:100184008093000146C00E94AE048093000141C0E8
:1001940089B18F708B3081F018F4873089F014C0E6
:1001A4008D3031F08E3081F483E38093000131C0CF
:1001B40086E3809300012DC089E38093000129C068
:1001C40083E28093000125C00E94AE048093000165
:1001D40020C089B18F708B3081F018F4873089F09A
:1001E40014C08D3031F08E3081F481E480930001AD
:1001F40010C082E4809300010CC083E4809300016A
:1002040008C084E48093000104C00E94AE0480937B
:08021400000180910001089532
:10021C0080E40E949E038FE99FE00197F1F700C0F4
:10022C0000008FE10E94D5038FE99FE00197F1F761
:10023C0000C0000085E10E94D5038FE99FE0019783
:10024C00F1F700C0000085E10E94D5038FE99FE023
:10025C000197F1F700C000008FE10E94D5038FE9F0
:10026C009FE00197F1F700C000008AE00E94D503DF
:10027C008FE99FE00197F1F700C0000085E10E9433
:10028C00D5038FE99FE00197F1F700C000008FE1E3
:10029C000E94D5038FE99FE00197F1F700C00000A1
:1002AC0080E00E94D5038FE99FE00197F1F700C031
:0402BC0000000895A1
:1002C00088E40E949E038FE99FE00197F1F700C048
:1002D000000080E00E94D5038FE99FE00197F1F7CD
:1002E00000C0000085E10E94D5038FE99FE00197DF
:1002F000F1F700C0000085E10E94D5038FE99FE07F
:100300000197F1F700C0000085E10E94D5038FE955
:100310009FE00197F1F700C0000085E10E94D5033E
:100320008FE99FE00197F1F700C0000085E10E948E
:10033000D5038FE99FE00197F1F700C0000085E148
:100340000E94D5038FE99FE00197F1F700C00000FC
:1003500085E10E94D5038FE99FE00197F1F700C086
:0403600000000895FC
:1003640080E50E949E038FE99FE00197F1F700C0AA
:10037400000080E00E94D5038FE99FE00197F1F728
:1003840000C0000081E10E94D5038FE99FE001973E
:10039400F1F700C000008FE10E94D5038FE99FE0D0
:1003A4000197F1F700C000008FE10E94D5038FE9A7
:1003B4009FE00197F1F700C000008FE10E94D50390
:1003C4008FE99FE00197F1F700C0000081E10E94EE
:1003D400D5038FE99FE00197F1F700C0000081E1A8
:1003E4000E94D5038FE99FE00197F1F700C0000058
:1003F40081E10E94D5038FE99FE00197F1F700C0E6
:040404000000089557
:1004080088E50E949E038FE99FE00197F1F700C0FD
:10041800000080E00E94D5038FE99FE00197F1F783
:1004280000C000008FE10E94D5038FE99FE001978B
:10043800F1F700C0000081E10E94D5038FE99FE039
:100448000197F1F700C0000081E10E94D5038FE910
:100458009FE00197F1F700C0000085E10E94D503F5
:100468008FE99FE00197F1F700C0000081E10E9449
:10047800D5038FE99FE00197F1F700C000008FE1F5
:100488000E94D5038FE99FE00197F1F700C00000B3
:100498008FE10E94D5038FE99FE00197F1F700C033
:0404A80000000895B3
:1004AC0080E60E949E038FE99FE00197F1F700C060
:1004BC0000008FE10E94D5038FE99FE00197F1F7CF
:1004CC0000C0000084E00E94D5038FE99FE00197F3
:1004DC00F1F700C000008EE00E94D5038FE99FE089
:1004EC000197F1F700C000008FE10E94D5038FE95E
:1004FC009FE00197F1F700C000008FE10E94D50347
:10050C008FE99FE00197F1F700C000008EE00E9498
:10051C00D5038FE99FE00197F1F700C0000084E05C
:10052C000E94D5038FE99FE00197F1F700C000000E
:10053C008FE10E94D5038FE99FE00197F1F700C08E
:04054C00000008950E
:1005500088E60E949E038FE99FE00197F1F700C0B3
:1005600000008EE00E94D5038FE99FE00197F1F72C
:1005700000C0000088E00E94D5038FE99FE001974A
:10058000F1F700C000008CE00E94D5038FE99FE0E6
:100590000197F1F700C000008FE10E94D5038FE9B9
:1005A0009FE00197F1F700C000008FE10E94D503A2
:1005B0008FE99FE00197F1F700C000008CE00E94F6
:1005C000D5038FE99FE00197F1F700C0000088E0B4
:1005D0000E94D5038FE99FE00197F1F700C000006A
:1005E0008EE00E94D5038FE99FE00197F1F700C0EC
:0405F000000008956A
:1005F40080E70E949E038FE99FE00197F1F700C016
:10060400000088E00E94D5038FE99FE00197F1F78D
:1006140000C000008DE10E94D5038FE99FE001979F
:10062400F1F700C000008FE10E94D5038FE99FE03D
:100634000197F1F700C000008DE10E94D5038FE916
:100644009FE00197F1F700C0000084E10E94D50308
:100654008FE99FE00197F1F700C0000084E10E9458
:10066400D5038FE99FE00197F1F700C0000084E112
:100674000E94D5038FE99FE00197F1F700C00000C5
:1006840084E10E94D5038FE99FE00197F1F700C050
:0406940000000895C5
:1006980088E70E949E038FE99FE00197F1F700C069
:1006A800000080E00E94D5038FE99FE00197F1F7F1
:1006B80000C0000080E00E94D5038FE99FE0019709
:1006C800F1F700C0000080E00E94D5038FE99FE0A9
:1006D8000197F1F700C000008CE00E94D5038FE974
:1006E8009FE00197F1F700C000008FE10E94D50359
:1006F8008FE99FE00197F1F700C000008CE00E94AD
:10070800D5038FE99FE00197F1F700C0000080E072
:100718000E94D5038FE99FE00197F1F700C0000020
:1007280080E00E94D5038FE99FE00197F1F700C0B0
:040738000000089520
:10073C00982F907F9695969598B998B19E7F98B979
:10074C0098B1926098B9EFE9FFE03197F1F700C0EA
:10075C00000098B19D7F98B9EFE3FCE93197F1F770
:10076C0000C0000090E0880F991F880F991F8C73B0
:10077C0088B988B18E7F88B988B1826088B98FE9D1
:10078C009FE00197F1F700C0000088B18D7F88B918
:0E079C00EFE3FCE93197F1F700C0000008958B
:1007AA00982F907F9695969598B998B1936098B935
:1007BA00EFE9FFE03197F1F700C0000098B19D7FA3
:1007CA0098B998B19E7F98B9EFE3FCE93197F1F7B0
:1007DA0000C0000090E0880F991F880F991F8C7342
:1007EA0088B988B1836088B98FE99FE00197F1F7EA
:1007FA0000C0000088B18D7F88B988B18E7F88B922
:0E080A00EFE3FCE93197F1F700C0000008951C
:10081800482F50E0FA01B097E831F10520F5EC5C7B
:10082800FF4F0C94A20480E00E949204089581E096
:100838000E949204089582E00E949204089583E041
:100848000E949204089584E00E949204089585E02D
:100858000E949204089586E00E949204089587E019
:0C0868000E94920408950E9492040895DA
:100874000E949B040E9454040E946B042FEF83EF98
:1008840091E0215080409040E1F700C000000E94B8
:100894007A00EFE3FCE93197F1F700C000000E9411
:0408A4000C04EACF87
:1008A8000E940E010E9460010E94B2010E9404028F
:1008B8000E9456020E94A8020E94FA020E944C035B
:0E08C8008FE39CE90197F1F700C0000008954E
:1008D6008BB18F3D41F08F3E19F08F3B51F406C02E
:1008E6008FED8BB908958FEB8BB908958FE78BB990
:0808F60008958FEE8BB90895FF
:1008FE0082E00E949E0388E20E949E038EE00E9488
:10090E009E0386E00E949E0381E00E949E0380E883
:06091E000E949E030895F3
:10092400CF93C82F0E94A8048C2F0E94D503CF9187
:02093400089524
:0E09360080EF8AB98FEF87B90E947F04089581
:0C094400EE0FFF1F0590F491E02D0994C8
:0809500081E00E949E0308955E
:040958000C940000FB
:04095C0080E2089598
:010960002076
:00000001FF
