:100000000C9434000C947A000C947A000C947A00CE
:100010000C947A000C947A000C947A000C947A0078
:100020000C947A000C947A000C947A000C947A0068
:100030000C947A000C947A000C947A000C947A0058
:100040000C947A000C947A000C947A000C947A0048
:100050000C947A000C947A000C947A000C947A0038
:100060000C947A000C947A0011241FBECFEFD8E0D4
:10007000DEBFCDBFE8E6F0E040E017C0B591A59146
:1000800035912591059107FD0CC095918591EF0162
:10009000F92FE82F05900D92A217B307D9F7FE01AB
:1000A00004C01D92A217B307E1F7E836F40731F751
:0C00B0000E9472000C945C00F894FFCFDA
:1000BC008BB18F3D41F08F3E19F08F3B51F406C050
:1000CC008FED8BB908958FEB8BB908958FE78BB9B2
:0800DC0008958FEE8BB9089521
:1000E40080EF8AB98BB98FEF87B90E945E00FDCF8C
:0400F4000C94000068
:00000001FF
