:100000000C9434000C944B000C948B000C949D01C8
:100010000C949D010C949D010C949D010C949D01E8
:100020000C949D010C949D010C949D010C949D01D8
:100030000C949D010C949D010C949D010C949D01C8
:100040000C949D010C949D010C949D010C949D01B8
:100050000C949D010C949D010C949D010C949D01A8
:100060000C949D010C949D0111241FBECFEFD8E08C
:10007000DEBFCDBF0E9438010C943E00F894FFCF44
:100080004F43523141202B203530004F43523141F4
:06009000202D2035300098
:100096001F920F920FB60F9211242F933F934F93F7
:1000A6005F936F937F938F939F93AF93BF93EF93DA
:1000B600FF9360E870E080E00E9466012FEF83ED19
:1000C60090E3215080409040E1F700C000000E947C
:1000D600990180918800909189008D3C910538F4B2
:1000E600E8E8F0E080819181C29691838083FF9158
:1000F600EF91BF91AF919F918F917F916F915F919A
:100106004F913F912F910F900FBE0F901F90189512
:100116001F920F920FB60F9211242F933F934F9376
:100126005F936F937F938F939F93AF93BF93EF9359
:10013600FF936BE870E080E00E9466012FEF83ED8D
:1001460090E3215080409040E1F700C000000E94FB
:1001560099018091880090918900C39738F0E8E86A
:10016600F0E080819181C29791838083FF91EF9126
:10017600BF91AF919F918F917F916F915F914F91B9
:0E0186003F912F910F900FBE0F901F90189574
:10019400982F907F9695969598B998B19E7F98B927
:1001A40098B1926098B9EFE9FFE03197F1F700C098
:1001B400000098B19D7F98B9EFE3FCE93197F1F71E
:1001C40000C0000090E0880F991F880F991F8C735E
:1001D40088B988B18E7F88B988B1826088B98FE97F
:1001E4009FE00197F1F700C0000088B18D7F88B9C6
:0E01F400EFE3FCE93197F1F700C00000089539
:10020200982F907F9695969598B998B1936098B9E2
:10021200EFE9FFE03197F1F700C0000098B19D7F50
:1002220098B998B19E7F98B9EFE3FCE93197F1F75D
:1002320000C0000090E0880F991F880F991F8C73EF
:1002420088B988B1836088B98FE99FE00197F1F797
:1002520000C0000088B18D7F88B988B18E7F88B9CF
:0E026200EFE3FCE93197F1F700C000000895CA
:100270001AB88FEF8BB987B90E9486012FEF89EFEB
:1002800090E0215080409040E1F700C0000081E8FC
:1002900083BD88EC90E0909389008093880082E091
:1002A00084B980E4809380008CE08093810013BC4B
:1002B000F894E9E6F0E080818260808380818C6040
:0C02C00080838DB383608DBB7894FFCFEA
:1002CC00CF92DF92EF92CF93DF936B01E82EC0E0D9
:1002DC00D0E003C00E9401012196AE2DC6018C0F07
:1002EC009D1FA11DD7FDAA95FC018491A7FD8081BE
:1002FC008111F0CFDF91CF91EF90DF90CF900895E7
:10030C0082E00E94CA0088E20E94CA008EE00E942D
:10031C00CA0086E00E94CA0081E00E94CA0080E800
:06032C000E94CA000895C2
:0803320081E00E94CA00089559
:04033A000C9400001F
:00000001FF
