:100000000C9434000C9469000C94A1000C94A7018A
:100010000C94A7010C94A7010C94A7010C94A701C0
:100020000C94A7010C94A7010C94A7010C94A701B0
:100030000C94A7010C94A7010C94A7010C94A701A0
:100040000C94A7010C94A7010C94A7010C94A70190
:100050000C94A7010C94A7010C94A7010C94A70180
:100060000C94A7010C94A70111241FBECFEFD8E078
:10007000DEBFCDBFE8E6F0E040E017C0B591A59146
:1000800035912591059107FD0CC095918591EF0162
:10009000F92FE82F05900D92A217B307D9F7FE01AB
:1000A00004C01D92A217B307E1F7E836F40731F751
:0C00B0000E9447010C945C00F894FFCF04
:1000BC004F43523041202B203530004F43523041BA
:0600CC00202D203530005C
:1000D2001F920F920FB60F9211242F933F934F93BB
:1000E2005F936F937F938F939F93AF93BF93EF939E
:1000F200FF936CEB70E080E00E9470012FEF83EDC4
:1001020090E3215080409040E1F700C000000E943F
:10011200A30187B58D3C18F487B58E5C87BDFF912E
:10012200EF91BF91AF919F918F917F916F915F916D
:100132004F913F912F910F900FBE0F901F901895E6
:100142001F920F920FB60F9211242F933F934F934A
:100152005F936F937F938F939F93AF93BF93EF932D
:10016200FF9367EC70E080E00E9470012FEF83ED57
:1001720090E3215080409040E1F700C000000E94CF
:10018200A30187B5833318F087B5825387BDFF91EA
:10019200EF91BF91AF919F918F917F916F915F91FD
:1001A2004F913F912F910F900FBE0F901F90189576
:1001B200982F907F9695969598B998B19E7F98B909
:1001C20098B1926098B9EFE9FFE03197F1F700C07A
:1001D200000098B19D7F98B9EFE3FCE93197F1F700
:1001E20000C0000090E0880F991F880F991F8C7340
:1001F20088B988B18E7F88B988B1826088B98FE961
:100202009FE00197F1F700C0000088B18D7F88B9A7
:0E021200EFE3FCE93197F1F700C0000008951A
:10022000982F907F9695969598B998B1936098B9C4
:10023000EFE9FFE03197F1F700C0000098B19D7F32
:1002400098B998B19E7F98B9EFE3FCE93197F1F73F
:1002500000C0000090E0880F991F880F991F8C73D1
:1002600088B988B1836088B98FE99FE00197F1F779
:1002700000C0000088B18D7F88B988B18E7F88B9B1
:0E028000EFE3FCE93197F1F700C000000895AC
:10028E008CE08AB98BB98FEF87B90E9490012FEF5E
:10029E0080E792E0215080409040E1F700C00000DE
:1002AE0081E883BD8AEF87BD80E48AB988E085BD89
:1002BE0081E084BD13BCF894E9E6F0E080818260B1
:1002CE00808380818C6080838DB383608DBB7894B6
:0202DE00FFCF50
:1002E000CF92DF92EF92CF93DF936B01E82EC0E0C5
:1002F000D0E003C00E9410012196AE2DC6018C0FE4
:100300009D1FA11DD7FDAA95FC018491A7FD8081A9
:100310008111F0CFDF91CF91EF90DF90CF900895D2
:1003200082E00E94D90088E20E94D9008EE00E94FB
:10033000D90086E00E94D90081E00E94D90080E8BF
:060340000E94D90008959F
:0803460081E00E94D900089536
:04034E000C9400000B
:00000001FF
