:100000000C9434000C944B000C948C000C94A801BC
:100010000C94A8010C94A8010C94A8010C94A801BC
:100020000C94A8010C94A8010C94A8010C94A801AC
:100030000C94A8010C94A8010C94A8010C94A8019C
:100040000C94A8010C94A8010C94A8010C94A8018C
:100050000C94A8010C94A8010C94A8010C94A8017C
:100060000C94A8010C94A80111241FBECFEFD8E076
:10007000DEBFCDBF0E943B010C943E00F894FFCF41
:100080004F43523141202B203530004F43523141F4
:06009000202D2035300098
:100096001F920F920FB60F9211242F933F934F93F7
:1000A6005F936F937F938F939F93AF93BF93EF93DA
:1000B600FF9360E870E080E00E9471012FEF83ED0E
:1000C60090E3215080409040E1F700C000000E947C
:1000D600A401809188009091890081159A4F40F47F
:1000E600E8E8F0E08081918188519C4F918380837C
:1000F600FF91EF91BF91AF919F918F917F916F91FA
:100106005F914F913F912F910F900FBE0F901F90CF
:0201160018953A
:100118001F920F920FB60F9211242F933F934F9374
:100128005F936F937F938F939F93AF93BF93EF9357
:10013800FF936BE870E080E00E9471012FEF83ED80
:1001480090E3215080409040E1F700C000000E94F9
:10015800A4018091880090918900893E934040F0E5
:10016800E8E8F0E080819181885E93409183808304
:10017800FF91EF91BF91AF919F918F917F916F9177
:100188005F914F913F912F910F900FBE0F901F904D
:020198001895B8
:10019A00982F907F9695969598B998B19E7F98B921
:1001AA0098B1926098B9EFE9FFE03197F1F700C092
:1001BA00000098B19D7F98B9EFE3FCE93197F1F718
:1001CA0000C0000090E0880F991F880F991F8C7358
:1001DA0088B988B18E7F88B988B1826088B98FE979
:1001EA009FE00197F1F700C0000088B18D7F88B9C0
:0E01FA00EFE3FCE93197F1F700C00000089533
:10020800982F907F9695969598B998B1936098B9DC
:10021800EFE9FFE03197F1F700C0000098B19D7F4A
:1002280098B998B19E7F98B9EFE3FCE93197F1F757
:1002380000C0000090E0880F991F880F991F8C73E9
:1002480088B988B1836088B98FE99FE00197F1F791
:1002580000C0000088B18D7F88B988B18E7F88B9C9
:0E026800EFE3FCE93197F1F700C000000895C4
:100276001AB88FEF8BB987B90E9491012FEF89EFDA
:1002860090E0215080409040E1F700C0000081E8F6
:1002960083BD88EB9BE0909389008093880082E081
:1002A60084B9A1E8B0E080E18C93E0E8F0E083E077
:1002B60080838C9181608C9380818064808313BC61
:1002C600F894E9E6F0E080818260808380818C602A
:0C02D60080838DB383608DBB7894FFCFD4
:1002E200CF92DF92EF92CF93DF936B01E82EC0E0C3
:1002F200D0E003C00E9404012196AE2DC6018C0FEE
:100302009D1FA11DD7FDAA95FC018491A7FD8081A7
:100312008111F0CFDF91CF91EF90DF90CF900895D0
:1003220082E00E94CD0088E20E94CD008EE00E9411
:10033200CD0086E00E94CD0081E00E94CD0080E8E1
:060342000E94CD000895A9
:0803480081E00E94CD00089540
:040350000C94000009
:00000001FF
