:100000000C9434000C94E2010C940D020C94BF0289
:100010000C94BF020C94B0010C94BF020C94BF026C
:100020000C94BF020C94BF020C94BF020C94BF024C
:100030000C94BF020C94BF020C94BF020C94BF023C
:100040000C94BF020C94BF020C94BF020C94BF022C
:100050000C94BF020C94BF020C94BF020C94BF021C
:100060000C94BF020C94BF0211241FBECFEFD8E046
:10007000DEBFCDBF0E94B4020C943E00F894FFCFC7
:10008000486F6C6100494E543000494E5431005065
:0700900043494E54313800D2
:1000980080E60E9442018FE99FE00197F1F700C0D6
:1000A80000008FE10E9479018FE99FE00197F1F745
:1000B80000C0000084E00E9479018FE99FE0019769
:1000C800F1F700C000008EE00E9479018FE99FE0FF
:1000D8000197F1F700C000008FE10E9479018FE9D4
:1000E8009FE00197F1F700C000008FE10E947901BD
:1000F8008FE99FE00197F1F700C000008EE00E94B1
:1001080079018FE99FE00197F1F700C0000084E0D2
:100118000E9479018FE99FE00197F1F700C0000084
:100128008FE10E9479018FE99FE00197F1F700C004
:040138000000089526
:10013C0088E60E9442018FE99FE00197F1F700C029
:10014C0000008EE00E9479018FE99FE00197F1F7A2
:10015C0000C0000088E00E9479018FE99FE00197C0
:10016C00F1F700C000008CE00E9479018FE99FE05C
:10017C000197F1F700C000008FE10E9479018FE92F
:10018C009FE00197F1F700C000008FE10E94790118
:10019C008FE99FE00197F1F700C000008CE00E940E
:1001AC0079018FE99FE00197F1F700C0000088E02A
:1001BC000E9479018FE99FE00197F1F700C00000E0
:1001CC008EE00E9479018FE99FE00197F1F700C062
:0401DC000000089582
:1001E00080E70E9442018FE99FE00197F1F700C08C
:1001F000000088E00E9479018FE99FE00197F1F704
:1002000000C000008DE10E9479018FE99FE0019715
:10021000F1F700C000008FE10E9479018FE99FE0B3
:100220000197F1F700C000008DE10E9479018FE98C
:100230009FE00197F1F700C0000084E10E9479017E
:100240008FE99FE00197F1F700C0000084E10E9470
:1002500079018FE99FE00197F1F700C0000084E188
:100260000E9479018FE99FE00197F1F700C000003B
:1002700084E10E9479018FE99FE00197F1F700C0C6
:0402800000000895DD
:10028400982F907F9695969598B998B19E7F98B936
:1002940098B1926098B9EFE9FFE03197F1F700C0A7
:1002A400000098B19D7F98B9EFE3FCE93197F1F72D
:1002B40000C0000090E0880F991F880F991F8C736D
:1002C40088B988B18E7F88B988B1826088B98FE98E
:1002D4009FE00197F1F700C0000088B18D7F88B9D5
:0E02E400EFE3FCE93197F1F700C00000089548
:1002F200982F907F9695969598B998B1936098B9F2
:10030200EFE9FFE03197F1F700C0000098B19D7F5F
:1003120098B998B19E7F98B9EFE3FCE93197F1F76C
:1003220000C0000090E0880F991F880F991F8C73FE
:1003320088B988B1836088B98FE99FE00197F1F7A6
:1003420000C0000088B18D7F88B988B18E7F88B9DE
:0E035200EFE3FCE93197F1F700C000000895D9
:100360001F920F920FB60F9211242F933F934F932A
:100370005F936F937F938F939F93AF93BF93EF930D
:10038000FF930E94BB026FE870E080E00E945E0273
:100390002FEF87EA91E6215080409040E1F700C0BE
:1003A0000000FF91EF91BF91AF919F918F917F914D
:1003B0006F915F914F913F912F910F900FBE0F90D2
:0403C0001F901895DD
:1003C4001F920F920FB60F9211242F933F934F93C6
:1003D4005F936F937F938F939F93AF93BF93EF93A9
:1003E400FF930E94BB0265E870E080E00E945E0219
:1003F4000E94A802FF91EF91BF91AF919F918F91BD
:100404007F916F915F914F913F912F910F900FBE0C
:060414000F901F901895E7
:10041A001F920F920FB60F9211242F933F934F936F
:10042A005F936F937F938F939F93AF93BF93EF9352
:10043A00FF930E94BB026AE870E080E00E945E02BD
:10044A000E94A802FF91EF91BF91AF919F918F9166
:10045A007F916F915F914F913F912F910F900FBEB6
:06046A000F901F90189591
:10047000F8941AB88FEF8BB914B885B987B9E9E643
:10048000F0E08081826080838081886080838DB38A
:1004900083608DBBE8E6F0E0808184608083EDE6D8
:1004A000F0E08081806380830E9495020E944C006E
:0C04B0000E949E000E94F00078940895C5
:1004BC00CF92DF92EF92CF93DF936B01E82EC0E0E7
:1004CC00D0E003C00E9479012196AE2DC6018C0F9D
:1004DC009D1FA11DD7FDAA95FC018491A7FD8081CC
:1004EC008111F0CFDF91CF91EF90DF90CF900895F5
:1004FC0084E00E9479010E94A80285E00E947901A3
:10050C000E94A80286E00E9479010E94A80260E87D
:0E051C0070E080E00E945E020E94A802089536
:10052A0082E00E94420188E20E9442018EE00E941B
:10053A00420186E00E94420181E00E94420180E875
:06054A000E944201089529
:100550002FEF83ED90E3215080409040E1F700C001
:0805600000000E94BB02089597
:0E0568000E9438020E94A8020E947E02FDCF6F
:0805760081E00E94420108959A
:04057E000C940000D9
:00000001FF
